{
  "_format": "hh-sol-artifact-1",
  "contractName": "CryptoPlanets",
  "sourceName": "contracts/CryptoPlanets.sol",
  "abi": [
    {
      "inputs": [],
      "stateMutability": "payable",
      "type": "constructor"
    },
    {
      "anonymous": false,
      "inputs": [
        {
          "indexed": true,
          "internalType": "address",
          "name": "owner",
          "type": "address"
        },
        {
          "indexed": true,
          "internalType": "address",
          "name": "approved",
          "type": "address"
        },
        {
          "indexed": true,
          "internalType": "uint256",
          "name": "tokenId",
          "type": "uint256"
        }
      ],
      "name": "Approval",
      "type": "event"
    },
    {
      "anonymous": false,
      "inputs": [
        {
          "indexed": true,
          "internalType": "address",
          "name": "owner",
          "type": "address"
        },
        {
          "indexed": true,
          "internalType": "address",
          "name": "operator",
          "type": "address"
        },
        {
          "indexed": false,
          "internalType": "bool",
          "name": "approved",
          "type": "bool"
        }
      ],
      "name": "ApprovalForAll",
      "type": "event"
    },
    {
      "anonymous": false,
      "inputs": [
        {
          "indexed": true,
          "internalType": "address",
          "name": "previousOwner",
          "type": "address"
        },
        {
          "indexed": true,
          "internalType": "address",
          "name": "newOwner",
          "type": "address"
        }
      ],
      "name": "OwnershipTransferred",
      "type": "event"
    },
    {
      "anonymous": false,
      "inputs": [
        {
          "indexed": true,
          "internalType": "address",
          "name": "from",
          "type": "address"
        },
        {
          "indexed": true,
          "internalType": "address",
          "name": "to",
          "type": "address"
        },
        {
          "indexed": true,
          "internalType": "uint256",
          "name": "tokenId",
          "type": "uint256"
        }
      ],
      "name": "Transfer",
      "type": "event"
    },
    {
      "inputs": [
        {
          "internalType": "address",
          "name": "to",
          "type": "address"
        },
        {
          "internalType": "uint256",
          "name": "tokenId",
          "type": "uint256"
        }
      ],
      "name": "approve",
      "outputs": [],
      "stateMutability": "nonpayable",
      "type": "function"
    },
    {
      "inputs": [
        {
          "internalType": "address",
          "name": "owner",
          "type": "address"
        }
      ],
      "name": "balanceOf",
      "outputs": [
        {
          "internalType": "uint256",
          "name": "",
          "type": "uint256"
        }
      ],
      "stateMutability": "view",
      "type": "function"
    },
    {
      "inputs": [
        {
          "internalType": "uint256",
          "name": "tokenId",
          "type": "uint256"
        }
      ],
      "name": "getApproved",
      "outputs": [
        {
          "internalType": "address",
          "name": "",
          "type": "address"
        }
      ],
      "stateMutability": "view",
      "type": "function"
    },
    {
      "inputs": [
        {
          "internalType": "address",
          "name": "owner",
          "type": "address"
        },
        {
          "internalType": "address",
          "name": "operator",
          "type": "address"
        }
      ],
      "name": "isApprovedForAll",
      "outputs": [
        {
          "internalType": "bool",
          "name": "",
          "type": "bool"
        }
      ],
      "stateMutability": "view",
      "type": "function"
    },
    {
      "inputs": [],
      "name": "isPublicMintEnabled",
      "outputs": [
        {
          "internalType": "bool",
          "name": "",
          "type": "bool"
        }
      ],
      "stateMutability": "view",
      "type": "function"
    },
    {
      "inputs": [],
      "name": "maxPerWallet",
      "outputs": [
        {
          "internalType": "uint256",
          "name": "",
          "type": "uint256"
        }
      ],
      "stateMutability": "view",
      "type": "function"
    },
    {
      "inputs": [],
      "name": "maxSupply",
      "outputs": [
        {
          "internalType": "uint256",
          "name": "",
          "type": "uint256"
        }
      ],
      "stateMutability": "view",
      "type": "function"
    },
    {
      "inputs": [
        {
          "internalType": "uint256",
          "name": "_quantity",
          "type": "uint256"
        }
      ],
      "name": "mint",
      "outputs": [],
      "stateMutability": "payable",
      "type": "function"
    },
    {
      "inputs": [],
      "name": "mintPrice",
      "outputs": [
        {
          "internalType": "uint256",
          "name": "",
          "type": "uint256"
        }
      ],
      "stateMutability": "view",
      "type": "function"
    },
    {
      "inputs": [],
      "name": "name",
      "outputs": [
        {
          "internalType": "string",
          "name": "",
          "type": "string"
        }
      ],
      "stateMutability": "view",
      "type": "function"
    },
    {
      "inputs": [],
      "name": "owner",
      "outputs": [
        {
          "internalType": "address",
          "name": "",
          "type": "address"
        }
      ],
      "stateMutability": "view",
      "type": "function"
    },
    {
      "inputs": [
        {
          "internalType": "uint256",
          "name": "tokenId",
          "type": "uint256"
        }
      ],
      "name": "ownerOf",
      "outputs": [
        {
          "internalType": "address",
          "name": "",
          "type": "address"
        }
      ],
      "stateMutability": "view",
      "type": "function"
    },
    {
      "inputs": [],
      "name": "paused",
      "outputs": [
        {
          "internalType": "bool",
          "name": "",
          "type": "bool"
        }
      ],
      "stateMutability": "view",
      "type": "function"
    },
    {
      "inputs": [],
      "name": "renounceOwnership",
      "outputs": [],
      "stateMutability": "nonpayable",
      "type": "function"
    },
    {
      "inputs": [
        {
          "internalType": "address",
          "name": "from",
          "type": "address"
        },
        {
          "internalType": "address",
          "name": "to",
          "type": "address"
        },
        {
          "internalType": "uint256",
          "name": "tokenId",
          "type": "uint256"
        }
      ],
      "name": "safeTransferFrom",
      "outputs": [],
      "stateMutability": "nonpayable",
      "type": "function"
    },
    {
      "inputs": [
        {
          "internalType": "address",
          "name": "from",
          "type": "address"
        },
        {
          "internalType": "address",
          "name": "to",
          "type": "address"
        },
        {
          "internalType": "uint256",
          "name": "tokenId",
          "type": "uint256"
        },
        {
          "internalType": "bytes",
          "name": "_data",
          "type": "bytes"
        }
      ],
      "name": "safeTransferFrom",
      "outputs": [],
      "stateMutability": "nonpayable",
      "type": "function"
    },
    {
      "inputs": [
        {
          "internalType": "address",
          "name": "operator",
          "type": "address"
        },
        {
          "internalType": "bool",
          "name": "approved",
          "type": "bool"
        }
      ],
      "name": "setApprovalForAll",
      "outputs": [],
      "stateMutability": "nonpayable",
      "type": "function"
    },
    {
      "inputs": [
        {
          "internalType": "string",
          "name": "_baseTokenUri",
          "type": "string"
        }
      ],
      "name": "setBaseTokenUri",
      "outputs": [],
      "stateMutability": "nonpayable",
      "type": "function"
    },
    {
      "inputs": [
        {
          "internalType": "string",
          "name": "_baseTokenURI",
          "type": "string"
        }
      ],
      "name": "setBaseURI",
      "outputs": [],
      "stateMutability": "nonpayable",
      "type": "function"
    },
    {
      "inputs": [
        {
          "internalType": "bool",
          "name": "_isPublicMintEnabled",
          "type": "bool"
        }
      ],
      "name": "setIsPublicMintEnabled",
      "outputs": [],
      "stateMutability": "nonpayable",
      "type": "function"
    },
    {
      "inputs": [
        {
          "internalType": "bool",
          "name": "_state",
          "type": "bool"
        }
      ],
      "name": "setPaused",
      "outputs": [],
      "stateMutability": "nonpayable",
      "type": "function"
    },
    {
      "inputs": [
        {
          "internalType": "bytes4",
          "name": "interfaceId",
          "type": "bytes4"
        }
      ],
      "name": "supportsInterface",
      "outputs": [
        {
          "internalType": "bool",
          "name": "",
          "type": "bool"
        }
      ],
      "stateMutability": "view",
      "type": "function"
    },
    {
      "inputs": [],
      "name": "symbol",
      "outputs": [
        {
          "internalType": "string",
          "name": "",
          "type": "string"
        }
      ],
      "stateMutability": "view",
      "type": "function"
    },
    {
      "inputs": [
        {
          "internalType": "uint256",
          "name": "_tokenId",
          "type": "uint256"
        }
      ],
      "name": "tokenURI",
      "outputs": [
        {
          "internalType": "string",
          "name": "",
          "type": "string"
        }
      ],
      "stateMutability": "view",
      "type": "function"
    },
    {
      "inputs": [],
      "name": "totalSupply",
      "outputs": [
        {
          "internalType": "uint256",
          "name": "",
          "type": "uint256"
        }
      ],
      "stateMutability": "view",
      "type": "function"
    },
    {
      "inputs": [
        {
          "internalType": "address",
          "name": "from",
          "type": "address"
        },
        {
          "internalType": "address",
          "name": "to",
          "type": "address"
        },
        {
          "internalType": "uint256",
          "name": "tokenId",
          "type": "uint256"
        }
      ],
      "name": "transferFrom",
      "outputs": [],
      "stateMutability": "nonpayable",
      "type": "function"
    },
    {
      "inputs": [
        {
          "internalType": "address",
          "name": "newOwner",
          "type": "address"
        }
      ],
      "name": "transferOwnership",
      "outputs": [],
      "stateMutability": "nonpayable",
      "type": "function"
    },
    {
      "inputs": [],
      "name": "withdraw",
      "outputs": [],
      "stateMutability": "nonpayable",
      "type": "function"
    },
    {
      "inputs": [],
      "name": "withdrawWallet",
      "outputs": [
        {
          "internalType": "address",
          "name": "",
          "type": "address"
        }
      ],
      "stateMutability": "view",
      "type": "function"
    }
  ],
  "bytecode": "0x60806040526040518060400160405280600e81526020017f43727974706f20506c616e6574730000000000000000000000000000000000008152506040518060400160405280600581526020017f435259504c00000000000000000000000000000000000000000000000000000081525081600090805190602001906200008892919062000214565b508060019080519060200190620000a192919062000214565b505050620000c4620000b86200014660201b60201c565b6200014e60201b60201c565b66470de4df82000060078190555060006008819055506127106009819055506003600a8190555073b5ce75feec6c5c9bc057e3b9a00a54faced31231600d60006101000a81548173ffffffffffffffffffffffffffffffffffffffff021916908373ffffffffffffffffffffffffffffffffffffffff16021790555062000329565b600033905090565b6000600660009054906101000a900473ffffffffffffffffffffffffffffffffffffffff16905081600660006101000a81548173ffffffffffffffffffffffffffffffffffffffff021916908373ffffffffffffffffffffffffffffffffffffffff1602179055508173ffffffffffffffffffffffffffffffffffffffff168173ffffffffffffffffffffffffffffffffffffffff167f8be0079c531659141344cd1fd0a4f28419497f9722a3daafe3b4186f6b6457e060405160405180910390a35050565b8280546200022290620002c4565b90600052602060002090601f01602090048101928262000246576000855562000292565b82601f106200026157805160ff191683800117855562000292565b8280016001018555821562000292579182015b828111156200029157825182559160200191906001019062000274565b5b509050620002a19190620002a5565b5090565b5b80821115620002c0576000816000905550600101620002a6565b5090565b60006002820490506001821680620002dd57607f821691505b60208210811415620002f457620002f3620002fa565b5b50919050565b7f4e487b7100000000000000000000000000000000000000000000000000000000600052602260045260246000fd5b613a1080620003396000396000f3fe6080604052600436106101c25760003560e01c80636352211e116100f757806395d89b4111610095578063c87b56dd11610064578063c87b56dd146105f9578063d5abeb0114610636578063e985e9c514610661578063f2fde38b1461069e576101c2565b806395d89b4114610560578063a0712d681461058b578063a22cb465146105a7578063b88d4fde146105d0576101c2565b8063715018a6116100d1578063715018a6146104ca57806385d178f4146104e15780638da5cb5b1461050c57806395652cfa14610537576101c2565b80636352211e146104255780636817c76c1461046257806370a082311461048d576101c2565b80632373ac221161016457806342842e0e1161013e57806342842e0e1461037d578063453c2310146103a657806355f804b3146103d15780635c975abb146103fa576101c2565b80632373ac221461031457806323b872dd1461033d5780633ccfd60b14610366576101c2565b8063081812fc116101a0578063081812fc1461025a578063095ea7b31461029757806316c38b3c146102c057806318160ddd146102e9576101c2565b80630116bc2d146101c757806301ffc9a7146101f257806306fdde031461022f575b600080fd5b3480156101d357600080fd5b506101dc6106c7565b6040516101e99190612cfc565b60405180910390f35b3480156101fe57600080fd5b50610219600480360381019061021491906126dc565b6106da565b6040516102269190612cfc565b60405180910390f35b34801561023b57600080fd5b506102446107bc565b6040516102519190612d17565b60405180910390f35b34801561026657600080fd5b50610281600480360381019061027c91906127b4565b61084e565b60405161028e9190612c95565b60405180910390f35b3480156102a357600080fd5b506102be60048036038101906102b99190612677565b6108d3565b005b3480156102cc57600080fd5b506102e760048036038101906102e291906126b3565b6109eb565b005b3480156102f557600080fd5b506102fe610a84565b60405161030b9190612fd9565b60405180910390f35b34801561032057600080fd5b5061033b600480360381019061033691906126b3565b610a8a565b005b34801561034957600080fd5b50610364600480360381019061035f9190612571565b610b23565b005b34801561037257600080fd5b5061037b610b83565b005b34801561038957600080fd5b506103a4600480360381019061039f9190612571565b610cd0565b005b3480156103b257600080fd5b506103bb610cf0565b6040516103c89190612fd9565b60405180910390f35b3480156103dd57600080fd5b506103f860048036038101906103f39190612773565b610cf6565b005b34801561040657600080fd5b5061040f610d8c565b60405161041c9190612cfc565b60405180910390f35b34801561043157600080fd5b5061044c600480360381019061044791906127b4565b610d9f565b6040516104599190612c95565b60405180910390f35b34801561046e57600080fd5b50610477610e51565b6040516104849190612fd9565b60405180910390f35b34801561049957600080fd5b506104b460048036038101906104af919061250c565b610e57565b6040516104c19190612fd9565b60405180910390f35b3480156104d657600080fd5b506104df610f0f565b005b3480156104ed57600080fd5b506104f6610f97565b6040516105039190612c95565b60405180910390f35b34801561051857600080fd5b50610521610fbd565b60405161052e9190612c95565b60405180910390f35b34801561054357600080fd5b5061055e6004803603810190610559919061272e565b610fe7565b005b34801561056c57600080fd5b50610575611079565b6040516105829190612d17565b60405180910390f35b6105a560048036038101906105a091906127b4565b61110b565b005b3480156105b357600080fd5b506105ce60048036038101906105c9919061263b565b6112ab565b005b3480156105dc57600080fd5b506105f760048036038101906105f291906125c0565b6112c1565b005b34801561060557600080fd5b50610620600480360381019061061b91906127b4565b611323565b60405161062d9190612d17565b60405180910390f35b34801561064257600080fd5b5061064b61139f565b6040516106589190612fd9565b60405180910390f35b34801561066d57600080fd5b5061068860048036038101906106839190612535565b6113a5565b6040516106959190612cfc565b60405180910390f35b3480156106aa57600080fd5b506106c560048036038101906106c0919061250c565b611439565b005b600b60009054906101000a900460ff1681565b60007f80ac58cd000000000000000000000000000000000000000000000000000000007bffffffffffffffffffffffffffffffffffffffffffffffffffffffff1916827bffffffffffffffffffffffffffffffffffffffffffffffffffffffff191614806107a557507f5b5e139f000000000000000000000000000000000000000000000000000000007bffffffffffffffffffffffffffffffffffffffffffffffffffffffff1916827bffffffffffffffffffffffffffffffffffffffffffffffffffffffff1916145b806107b557506107b482611531565b5b9050919050565b6060600080546107cb906132a9565b80601f01602080910402602001604051908101604052809291908181526020018280546107f7906132a9565b80156108445780601f1061081957610100808354040283529160200191610844565b820191906000526020600020905b81548152906001019060200180831161082757829003601f168201915b5050505050905090565b60006108598261159b565b610898576040517f08c379a000000000000000000000000000000000000000000000000000000000815260040161088f90612ef9565b60405180910390fd5b6004600083815260200190815260200160002060009054906101000a900473ffffffffffffffffffffffffffffffffffffffff169050919050565b60006108de82610d9f565b90508073ffffffffffffffffffffffffffffffffffffffff168373ffffffffffffffffffffffffffffffffffffffff16141561094f576040517f08c379a000000000000000000000000000000000000000000000000000000000815260040161094690612f39565b60405180910390fd5b8073ffffffffffffffffffffffffffffffffffffffff1661096e611607565b73ffffffffffffffffffffffffffffffffffffffff16148061099d575061099c81610997611607565b6113a5565b5b6109dc576040517f08c379a00000000000000000000000000000000000000000000000000000000081526004016109d390612e79565b60405180910390fd5b6109e6838361160f565b505050565b6109f3611607565b73ffffffffffffffffffffffffffffffffffffffff16610a11610fbd565b73ffffffffffffffffffffffffffffffffffffffff1614610a67576040517f08c379a0000000000000000000000000000000000000000000000000000000008152600401610a5e90612f19565b60405180910390fd5b80600b60016101000a81548160ff02191690831515021790555050565b60085481565b610a92611607565b73ffffffffffffffffffffffffffffffffffffffff16610ab0610fbd565b73ffffffffffffffffffffffffffffffffffffffff1614610b06576040517f08c379a0000000000000000000000000000000000000000000000000000000008152600401610afd90612f19565b60405180910390fd5b80600b60006101000a81548160ff02191690831515021790555050565b610b34610b2e611607565b826116c8565b610b73576040517f08c379a0000000000000000000000000000000000000000000000000000000008152600401610b6a90612f59565b60405180910390fd5b610b7e8383836117a6565b505050565b610b8b611607565b73ffffffffffffffffffffffffffffffffffffffff16610ba9610fbd565b73ffffffffffffffffffffffffffffffffffffffff1614610bff576040517f08c379a0000000000000000000000000000000000000000000000000000000008152600401610bf690612f19565b60405180910390fd5b6000600d60009054906101000a900473ffffffffffffffffffffffffffffffffffffffff1673ffffffffffffffffffffffffffffffffffffffff1647604051610c4790612c80565b60006040518083038185875af1925050503d8060008114610c84576040519150601f19603f3d011682016040523d82523d6000602084013e610c89565b606091505b5050905080610ccd576040517f08c379a0000000000000000000000000000000000000000000000000000000008152600401610cc490612f99565b60405180910390fd5b50565b610ceb838383604051806020016040528060008152506112c1565b505050565b600a5481565b610cfe611607565b73ffffffffffffffffffffffffffffffffffffffff16610d1c610fbd565b73ffffffffffffffffffffffffffffffffffffffff1614610d72576040517f08c379a0000000000000000000000000000000000000000000000000000000008152600401610d6990612f19565b60405180910390fd5b80600c9080519060200190610d88929190612260565b5050565b600b60019054906101000a900460ff1681565b6000806002600084815260200190815260200160002060009054906101000a900473ffffffffffffffffffffffffffffffffffffffff169050600073ffffffffffffffffffffffffffffffffffffffff168173ffffffffffffffffffffffffffffffffffffffff161415610e48576040517f08c379a0000000000000000000000000000000000000000000000000000000008152600401610e3f90612eb9565b60405180910390fd5b80915050919050565b60075481565b60008073ffffffffffffffffffffffffffffffffffffffff168273ffffffffffffffffffffffffffffffffffffffff161415610ec8576040517f08c379a0000000000000000000000000000000000000000000000000000000008152600401610ebf90612e99565b60405180910390fd5b600360008373ffffffffffffffffffffffffffffffffffffffff1673ffffffffffffffffffffffffffffffffffffffff168152602001908152602001600020549050919050565b610f17611607565b73ffffffffffffffffffffffffffffffffffffffff16610f35610fbd565b73ffffffffffffffffffffffffffffffffffffffff1614610f8b576040517f08c379a0000000000000000000000000000000000000000000000000000000008152600401610f8290612f19565b60405180910390fd5b610f956000611a0d565b565b600d60009054906101000a900473ffffffffffffffffffffffffffffffffffffffff1681565b6000600660009054906101000a900473ffffffffffffffffffffffffffffffffffffffff16905090565b610fef611607565b73ffffffffffffffffffffffffffffffffffffffff1661100d610fbd565b73ffffffffffffffffffffffffffffffffffffffff1614611063576040517f08c379a000000000000000000000000000000000000000000000000000000000815260040161105a90612f19565b60405180910390fd5b8181600c91906110749291906122e6565b505050565b606060018054611088906132a9565b80601f01602080910402602001604051908101604052809291908181526020018280546110b4906132a9565b80156111015780601f106110d657610100808354040283529160200191611101565b820191906000526020600020905b8154815290600101906020018083116110e457829003601f168201915b5050505050905090565b600b60009054906101000a900460ff1661115a576040517f08c379a000000000000000000000000000000000000000000000000000000000815260040161115190612d79565b60405180910390fd5b600754816111689190613165565b34146111a9576040517f08c379a00000000000000000000000000000000000000000000000000000000081526004016111a090612d39565b60405180910390fd5b600954816008546111ba91906130de565b11156111fb576040517f08c379a00000000000000000000000000000000000000000000000000000000081526004016111f290612e59565b60405180910390fd5b600a548161120833610e57565b61121291906130de565b1115611253576040517f08c379a000000000000000000000000000000000000000000000000000000000815260040161124a90612fb9565b60405180910390fd5b60005b818110156112a7576000600160085461126f91906130de565b9050600860008154809291906112849061330c565b91905055506112933382611ad3565b50808061129f9061330c565b915050611256565b5050565b6112bd6112b6611607565b8383611af1565b5050565b6112d26112cc611607565b836116c8565b611311576040517f08c379a000000000000000000000000000000000000000000000000000000000815260040161130890612f59565b60405180910390fd5b61131d84848484611c5e565b50505050565b606061132e8261159b565b61136d576040517f08c379a000000000000000000000000000000000000000000000000000000000815260040161136490612f79565b60405180910390fd5b600c61137883611cba565b604051602001611389929190612c51565b6040516020818303038152906040529050919050565b60095481565b6000600560008473ffffffffffffffffffffffffffffffffffffffff1673ffffffffffffffffffffffffffffffffffffffff16815260200190815260200160002060008373ffffffffffffffffffffffffffffffffffffffff1673ffffffffffffffffffffffffffffffffffffffff16815260200190815260200160002060009054906101000a900460ff16905092915050565b611441611607565b73ffffffffffffffffffffffffffffffffffffffff1661145f610fbd565b73ffffffffffffffffffffffffffffffffffffffff16146114b5576040517f08c379a00000000000000000000000000000000000000000000000000000000081526004016114ac90612f19565b60405180910390fd5b600073ffffffffffffffffffffffffffffffffffffffff168173ffffffffffffffffffffffffffffffffffffffff161415611525576040517f08c379a000000000000000000000000000000000000000000000000000000000815260040161151c90612d99565b60405180910390fd5b61152e81611a0d565b50565b60007f01ffc9a7000000000000000000000000000000000000000000000000000000007bffffffffffffffffffffffffffffffffffffffffffffffffffffffff1916827bffffffffffffffffffffffffffffffffffffffffffffffffffffffff1916149050919050565b60008073ffffffffffffffffffffffffffffffffffffffff166002600084815260200190815260200160002060009054906101000a900473ffffffffffffffffffffffffffffffffffffffff1673ffffffffffffffffffffffffffffffffffffffff1614159050919050565b600033905090565b816004600083815260200190815260200160002060006101000a81548173ffffffffffffffffffffffffffffffffffffffff021916908373ffffffffffffffffffffffffffffffffffffffff160217905550808273ffffffffffffffffffffffffffffffffffffffff1661168283610d9f565b73ffffffffffffffffffffffffffffffffffffffff167f8c5be1e5ebec7d5bd14f71427d1e84f3dd0314c0f7b2291e5b200ac8c7c3b92560405160405180910390a45050565b60006116d38261159b565b611712576040517f08c379a000000000000000000000000000000000000000000000000000000000815260040161170990612e39565b60405180910390fd5b600061171d83610d9f565b90508073ffffffffffffffffffffffffffffffffffffffff168473ffffffffffffffffffffffffffffffffffffffff16148061178c57508373ffffffffffffffffffffffffffffffffffffffff166117748461084e565b73ffffffffffffffffffffffffffffffffffffffff16145b8061179d575061179c81856113a5565b5b91505092915050565b8273ffffffffffffffffffffffffffffffffffffffff166117c682610d9f565b73ffffffffffffffffffffffffffffffffffffffff161461181c576040517f08c379a000000000000000000000000000000000000000000000000000000000815260040161181390612db9565b60405180910390fd5b600073ffffffffffffffffffffffffffffffffffffffff168273ffffffffffffffffffffffffffffffffffffffff16141561188c576040517f08c379a000000000000000000000000000000000000000000000000000000000815260040161188390612df9565b60405180910390fd5b611897838383611e67565b6118a260008261160f565b6001600360008573ffffffffffffffffffffffffffffffffffffffff1673ffffffffffffffffffffffffffffffffffffffff16815260200190815260200160002060008282546118f291906131bf565b925050819055506001600360008473ffffffffffffffffffffffffffffffffffffffff1673ffffffffffffffffffffffffffffffffffffffff168152602001908152602001600020600082825461194991906130de565b92505081905550816002600083815260200190815260200160002060006101000a81548173ffffffffffffffffffffffffffffffffffffffff021916908373ffffffffffffffffffffffffffffffffffffffff160217905550808273ffffffffffffffffffffffffffffffffffffffff168473ffffffffffffffffffffffffffffffffffffffff167fddf252ad1be2c89b69c2b068fc378daa952ba7f163c4a11628f55a4df523b3ef60405160405180910390a4611a08838383611e6c565b505050565b6000600660009054906101000a900473ffffffffffffffffffffffffffffffffffffffff16905081600660006101000a81548173ffffffffffffffffffffffffffffffffffffffff021916908373ffffffffffffffffffffffffffffffffffffffff1602179055508173ffffffffffffffffffffffffffffffffffffffff168173ffffffffffffffffffffffffffffffffffffffff167f8be0079c531659141344cd1fd0a4f28419497f9722a3daafe3b4186f6b6457e060405160405180910390a35050565b611aed828260405180602001604052806000815250611e71565b5050565b8173ffffffffffffffffffffffffffffffffffffffff168373ffffffffffffffffffffffffffffffffffffffff161415611b60576040517f08c379a0000000000000000000000000000000000000000000000000000000008152600401611b5790612e19565b60405180910390fd5b80600560008573ffffffffffffffffffffffffffffffffffffffff1673ffffffffffffffffffffffffffffffffffffffff16815260200190815260200160002060008473ffffffffffffffffffffffffffffffffffffffff1673ffffffffffffffffffffffffffffffffffffffff16815260200190815260200160002060006101000a81548160ff0219169083151502179055508173ffffffffffffffffffffffffffffffffffffffff168373ffffffffffffffffffffffffffffffffffffffff167f17307eab39ab6107e8899845ad3d59bd9653f200f220920489ca2b5937696c3183604051611c519190612cfc565b60405180910390a3505050565b611c698484846117a6565b611c7584848484611ecc565b611cb4576040517f08c379a0000000000000000000000000000000000000000000000000000000008152600401611cab90612d59565b60405180910390fd5b50505050565b60606000821415611d02576040518060400160405280600181526020017f30000000000000000000000000000000000000000000000000000000000000008152509050611e62565b600082905060005b60008214611d34578080611d1d9061330c565b915050600a82611d2d9190613134565b9150611d0a565b60008167ffffffffffffffff811115611d76577f4e487b7100000000000000000000000000000000000000000000000000000000600052604160045260246000fd5b6040519080825280601f01601f191660200182016040528015611da85781602001600182028036833780820191505090505b5090505b60008514611e5b57600182611dc191906131bf565b9150600a85611dd09190613355565b6030611ddc91906130de565b60f81b818381518110611e18577f4e487b7100000000000000000000000000000000000000000000000000000000600052603260045260246000fd5b60200101907effffffffffffffffffffffffffffffffffffffffffffffffffffffffffffff1916908160001a905350600a85611e549190613134565b9450611dac565b8093505050505b919050565b505050565b505050565b611e7b8383612063565b611e886000848484611ecc565b611ec7576040517f08c379a0000000000000000000000000000000000000000000000000000000008152600401611ebe90612d59565b60405180910390fd5b505050565b6000611eed8473ffffffffffffffffffffffffffffffffffffffff1661223d565b15612056578373ffffffffffffffffffffffffffffffffffffffff1663150b7a02611f16611607565b8786866040518563ffffffff1660e01b8152600401611f389493929190612cb0565b602060405180830381600087803b158015611f5257600080fd5b505af1925050508015611f8357506040513d601f19601f82011682018060405250810190611f809190612705565b60015b612006573d8060008114611fb3576040519150601f19603f3d011682016040523d82523d6000602084013e611fb8565b606091505b50600081511415611ffe576040517f08c379a0000000000000000000000000000000000000000000000000000000008152600401611ff590612d59565b60405180910390fd5b805181602001fd5b63150b7a0260e01b7bffffffffffffffffffffffffffffffffffffffffffffffffffffffff1916817bffffffffffffffffffffffffffffffffffffffffffffffffffffffff19161491505061205b565b600190505b949350505050565b600073ffffffffffffffffffffffffffffffffffffffff168273ffffffffffffffffffffffffffffffffffffffff1614156120d3576040517f08c379a00000000000000000000000000000000000000000000000000000000081526004016120ca90612ed9565b60405180910390fd5b6120dc8161159b565b1561211c576040517f08c379a000000000000000000000000000000000000000000000000000000000815260040161211390612dd9565b60405180910390fd5b61212860008383611e67565b6001600360008473ffffffffffffffffffffffffffffffffffffffff1673ffffffffffffffffffffffffffffffffffffffff168152602001908152602001600020600082825461217891906130de565b92505081905550816002600083815260200190815260200160002060006101000a81548173ffffffffffffffffffffffffffffffffffffffff021916908373ffffffffffffffffffffffffffffffffffffffff160217905550808273ffffffffffffffffffffffffffffffffffffffff16600073ffffffffffffffffffffffffffffffffffffffff167fddf252ad1be2c89b69c2b068fc378daa952ba7f163c4a11628f55a4df523b3ef60405160405180910390a461223960008383611e6c565b5050565b6000808273ffffffffffffffffffffffffffffffffffffffff163b119050919050565b82805461226c906132a9565b90600052602060002090601f01602090048101928261228e57600085556122d5565b82601f106122a757805160ff19168380011785556122d5565b828001600101855582156122d5579182015b828111156122d45782518255916020019190600101906122b9565b5b5090506122e2919061236c565b5090565b8280546122f2906132a9565b90600052602060002090601f016020900481019282612314576000855561235b565b82601f1061232d57803560ff191683800117855561235b565b8280016001018555821561235b579182015b8281111561235a57823582559160200191906001019061233f565b5b509050612368919061236c565b5090565b5b8082111561238557600081600090555060010161236d565b5090565b600061239c61239784613019565b612ff4565b9050828152602081018484840111156123b457600080fd5b6123bf848285613267565b509392505050565b60006123da6123d58461304a565b612ff4565b9050828152602081018484840111156123f257600080fd5b6123fd848285613267565b509392505050565b6000813590506124148161397e565b92915050565b60008135905061242981613995565b92915050565b60008135905061243e816139ac565b92915050565b600081519050612453816139ac565b92915050565b600082601f83011261246a57600080fd5b813561247a848260208601612389565b91505092915050565b60008083601f84011261249557600080fd5b8235905067ffffffffffffffff8111156124ae57600080fd5b6020830191508360018202830111156124c657600080fd5b9250929050565b600082601f8301126124de57600080fd5b81356124ee8482602086016123c7565b91505092915050565b600081359050612506816139c3565b92915050565b60006020828403121561251e57600080fd5b600061252c84828501612405565b91505092915050565b6000806040838503121561254857600080fd5b600061255685828601612405565b925050602061256785828601612405565b9150509250929050565b60008060006060848603121561258657600080fd5b600061259486828701612405565b93505060206125a586828701612405565b92505060406125b6868287016124f7565b9150509250925092565b600080600080608085870312156125d657600080fd5b60006125e487828801612405565b94505060206125f587828801612405565b9350506040612606878288016124f7565b925050606085013567ffffffffffffffff81111561262357600080fd5b61262f87828801612459565b91505092959194509250565b6000806040838503121561264e57600080fd5b600061265c85828601612405565b925050602061266d8582860161241a565b9150509250929050565b6000806040838503121561268a57600080fd5b600061269885828601612405565b92505060206126a9858286016124f7565b9150509250929050565b6000602082840312156126c557600080fd5b60006126d38482850161241a565b91505092915050565b6000602082840312156126ee57600080fd5b60006126fc8482850161242f565b91505092915050565b60006020828403121561271757600080fd5b600061272584828501612444565b91505092915050565b6000806020838503121561274157600080fd5b600083013567ffffffffffffffff81111561275b57600080fd5b61276785828601612483565b92509250509250929050565b60006020828403121561278557600080fd5b600082013567ffffffffffffffff81111561279f57600080fd5b6127ab848285016124cd565b91505092915050565b6000602082840312156127c657600080fd5b60006127d4848285016124f7565b91505092915050565b6127e6816131f3565b82525050565b6127f581613205565b82525050565b600061280682613090565b61281081856130a6565b9350612820818560208601613276565b61282981613442565b840191505092915050565b600061283f8261309b565b61284981856130c2565b9350612859818560208601613276565b61286281613442565b840191505092915050565b60006128788261309b565b61288281856130d3565b9350612892818560208601613276565b80840191505092915050565b600081546128ab816132a9565b6128b581866130d3565b945060018216600081146128d057600181146128e157612914565b60ff19831686528186019350612914565b6128ea8561307b565b60005b8381101561290c578154818901526001820191506020810190506128ed565b838801955050505b50505092915050565b600061292a6010836130c2565b915061293582613453565b602082019050919050565b600061294d6032836130c2565b91506129588261347c565b604082019050919050565b60006129706013836130c2565b915061297b826134cb565b602082019050919050565b60006129936026836130c2565b915061299e826134f4565b604082019050919050565b60006129b66025836130c2565b91506129c182613543565b604082019050919050565b60006129d9601c836130c2565b91506129e482613592565b602082019050919050565b60006129fc6024836130c2565b9150612a07826135bb565b604082019050919050565b6000612a1f6019836130c2565b9150612a2a8261360a565b602082019050919050565b6000612a42602c836130c2565b9150612a4d82613633565b604082019050919050565b6000612a656008836130c2565b9150612a7082613682565b602082019050919050565b6000612a886038836130c2565b9150612a93826136ab565b604082019050919050565b6000612aab602a836130c2565b9150612ab6826136fa565b604082019050919050565b6000612ace6029836130c2565b9150612ad982613749565b604082019050919050565b6000612af16020836130c2565b9150612afc82613798565b602082019050919050565b6000612b14602c836130c2565b9150612b1f826137c1565b604082019050919050565b6000612b376005836130d3565b9150612b4282613810565b600582019050919050565b6000612b5a6020836130c2565b9150612b6582613839565b602082019050919050565b6000612b7d6021836130c2565b9150612b8882613862565b604082019050919050565b6000612ba06000836130b7565b9150612bab826138b1565b600082019050919050565b6000612bc36031836130c2565b9150612bce826138b4565b604082019050919050565b6000612be66015836130c2565b9150612bf182613903565b602082019050919050565b6000612c09600f836130c2565b9150612c148261392c565b602082019050919050565b6000612c2c6015836130c2565b9150612c3782613955565b602082019050919050565b612c4b8161325d565b82525050565b6000612c5d828561289e565b9150612c69828461286d565b9150612c7482612b2a565b91508190509392505050565b6000612c8b82612b93565b9150819050919050565b6000602082019050612caa60008301846127dd565b92915050565b6000608082019050612cc560008301876127dd565b612cd260208301866127dd565b612cdf6040830185612c42565b8181036060830152612cf181846127fb565b905095945050505050565b6000602082019050612d1160008301846127ec565b92915050565b60006020820190508181036000830152612d318184612834565b905092915050565b60006020820190508181036000830152612d528161291d565b9050919050565b60006020820190508181036000830152612d7281612940565b9050919050565b60006020820190508181036000830152612d9281612963565b9050919050565b60006020820190508181036000830152612db281612986565b9050919050565b60006020820190508181036000830152612dd2816129a9565b9050919050565b60006020820190508181036000830152612df2816129cc565b9050919050565b60006020820190508181036000830152612e12816129ef565b9050919050565b60006020820190508181036000830152612e3281612a12565b9050919050565b60006020820190508181036000830152612e5281612a35565b9050919050565b60006020820190508181036000830152612e7281612a58565b9050919050565b60006020820190508181036000830152612e9281612a7b565b9050919050565b60006020820190508181036000830152612eb281612a9e565b9050919050565b60006020820190508181036000830152612ed281612ac1565b9050919050565b60006020820190508181036000830152612ef281612ae4565b9050919050565b60006020820190508181036000830152612f1281612b07565b9050919050565b60006020820190508181036000830152612f3281612b4d565b9050919050565b60006020820190508181036000830152612f5281612b70565b9050919050565b60006020820190508181036000830152612f7281612bb6565b9050919050565b60006020820190508181036000830152612f9281612bd9565b9050919050565b60006020820190508181036000830152612fb281612bfc565b9050919050565b60006020820190508181036000830152612fd281612c1f565b9050919050565b6000602082019050612fee6000830184612c42565b92915050565b6000612ffe61300f565b905061300a82826132db565b919050565b6000604051905090565b600067ffffffffffffffff82111561303457613033613413565b5b61303d82613442565b9050602081019050919050565b600067ffffffffffffffff82111561306557613064613413565b5b61306e82613442565b9050602081019050919050565b60008190508160005260206000209050919050565b600081519050919050565b600081519050919050565b600082825260208201905092915050565b600081905092915050565b600082825260208201905092915050565b600081905092915050565b60006130e98261325d565b91506130f48361325d565b9250827fffffffffffffffffffffffffffffffffffffffffffffffffffffffffffffffff0382111561312957613128613386565b5b828201905092915050565b600061313f8261325d565b915061314a8361325d565b92508261315a576131596133b5565b5b828204905092915050565b60006131708261325d565b915061317b8361325d565b9250817fffffffffffffffffffffffffffffffffffffffffffffffffffffffffffffffff04831182151516156131b4576131b3613386565b5b828202905092915050565b60006131ca8261325d565b91506131d58361325d565b9250828210156131e8576131e7613386565b5b828203905092915050565b60006131fe8261323d565b9050919050565b60008115159050919050565b60007fffffffff0000000000000000000000000000000000000000000000000000000082169050919050565b600073ffffffffffffffffffffffffffffffffffffffff82169050919050565b6000819050919050565b82818337600083830152505050565b60005b83811015613294578082015181840152602081019050613279565b838111156132a3576000848401525b50505050565b600060028204905060018216806132c157607f821691505b602082108114156132d5576132d46133e4565b5b50919050565b6132e482613442565b810181811067ffffffffffffffff8211171561330357613302613413565b5b80604052505050565b60006133178261325d565b91507fffffffffffffffffffffffffffffffffffffffffffffffffffffffffffffffff82141561334a57613349613386565b5b600182019050919050565b60006133608261325d565b915061336b8361325d565b92508261337b5761337a6133b5565b5b828206905092915050565b7f4e487b7100000000000000000000000000000000000000000000000000000000600052601160045260246000fd5b7f4e487b7100000000000000000000000000000000000000000000000000000000600052601260045260246000fd5b7f4e487b7100000000000000000000000000000000000000000000000000000000600052602260045260246000fd5b7f4e487b7100000000000000000000000000000000000000000000000000000000600052604160045260246000fd5b6000601f19601f8301169050919050565b7f77726f6e67206d696e742076616c756500000000000000000000000000000000600082015250565b7f4552433732313a207472616e7366657220746f206e6f6e20455243373231526560008201527f63656976657220696d706c656d656e7465720000000000000000000000000000602082015250565b7f6d696e74696e67206e6f7420656e61626c656400000000000000000000000000600082015250565b7f4f776e61626c653a206e6577206f776e657220697320746865207a65726f206160008201527f6464726573730000000000000000000000000000000000000000000000000000602082015250565b7f4552433732313a207472616e736665722066726f6d20696e636f72726563742060008201527f6f776e6572000000000000000000000000000000000000000000000000000000602082015250565b7f4552433732313a20746f6b656e20616c7265616479206d696e74656400000000600082015250565b7f4552433732313a207472616e7366657220746f20746865207a65726f2061646460008201527f7265737300000000000000000000000000000000000000000000000000000000602082015250565b7f4552433732313a20617070726f766520746f2063616c6c657200000000000000600082015250565b7f4552433732313a206f70657261746f7220717565727920666f72206e6f6e657860008201527f697374656e7420746f6b656e0000000000000000000000000000000000000000602082015250565b7f736f6c64206f7574000000000000000000000000000000000000000000000000600082015250565b7f4552433732313a20617070726f76652063616c6c6572206973206e6f74206f7760008201527f6e6572206e6f7220617070726f76656420666f7220616c6c0000000000000000602082015250565b7f4552433732313a2062616c616e636520717565727920666f7220746865207a6560008201527f726f206164647265737300000000000000000000000000000000000000000000602082015250565b7f4552433732313a206f776e657220717565727920666f72206e6f6e657869737460008201527f656e7420746f6b656e0000000000000000000000000000000000000000000000602082015250565b7f4552433732313a206d696e7420746f20746865207a65726f2061646472657373600082015250565b7f4552433732313a20617070726f76656420717565727920666f72206e6f6e657860008201527f697374656e7420746f6b656e0000000000000000000000000000000000000000602082015250565b7f2e6a736f6e000000000000000000000000000000000000000000000000000000600082015250565b7f4f776e61626c653a2063616c6c6572206973206e6f7420746865206f776e6572600082015250565b7f4552433732313a20617070726f76616c20746f2063757272656e74206f776e6560008201527f7200000000000000000000000000000000000000000000000000000000000000602082015250565b50565b7f4552433732313a207472616e736665722063616c6c6572206973206e6f74206f60008201527f776e6572206e6f7220617070726f766564000000000000000000000000000000602082015250565b7f546f6b656e20646f6573206e6f74206578697374210000000000000000000000600082015250565b7f7769746864726177206661696c65640000000000000000000000000000000000600082015250565b7f657863656564206d6178207065722077616c6c65740000000000000000000000600082015250565b613987816131f3565b811461399257600080fd5b50565b61399e81613205565b81146139a957600080fd5b50565b6139b581613211565b81146139c057600080fd5b50565b6139cc8161325d565b81146139d757600080fd5b5056fea264697066735822122079ebe3b5128f1ba7098da787dcad5c7c0c3d0fa799c49d387831da10eff8f4a264736f6c63430008040033",
  "linkReferences": {},
  "deployedLinkReferences": {}
}